S01E00004D425443505F536F6674776172655F50726F6A6563742E73726563B0
S31508000000005000203D0D00088D0C0008970C0008D4
S3150800001000000000000000000000000000000000D2
S315080000200000000000000000000000009D0C000811
S315080000300000000000000000A70C0008B10C000832
S315080000408D0D00088D0D00088D0D00088D0D00081A
S315080000508D0D00088D0D00088D0D00088D0D00080A
S315080000608D0D00088D0D00088D0D00088D0D0008FA
S315080000708D0D00088D0D00088D0D00088D0D0008EA
S315080000808D0D00088D0D00088D0D0008000000007C
S315080000908D0D00088D0D00088D0D00088D0D0008CA
S315080000A08D0D00088D0D00088D0D00088D0D0008BA
S315080000B08D0D00088D0D00088D0D00088D0D0008AA
S315080000C010B5064C2378002B07D1054B002B02D020
S315080000D0044800E000BF0123237010BD040000207F
S315080000E000000000AC340008044B10B5002B03D008
S315080000F00349044800E000BF10BDC04600000000E8
S3150800010008000020AC340008002243088B4274D350
S3150800011003098B425FD3030A8B4244D3030B8B42FA
S3150800012028D3030C8B420DD3FF22090212BA030C03
S315080001308B4202D31212090265D0030B8B4219D3E4
S3150800014000E0090AC30B8B4201D3CB03C01A524104
S31508000150830B8B4201D38B03C01A5241430B8B424C
S3150800016001D34B03C01A5241030B8B4201D30B0335
S31508000170C01A5241C30A8B4201D3CB02C01A52415C
S31508000180830A8B4201D38B02C01A5241430A8B421F
S3150800019001D34B02C01A5241030A8B4201D30B0208
S315080001A0C01A5241CDD2C3098B4201D3CB01C01A22
S315080001B0524183098B4201D38B01C01A524143092C
S315080001C08B4201D34B01C01A524103098B4201D31A
S315080001D00B01C01A5241C3088B4201D3CB00C01A87
S315080001E0524183088B4201D38B00C01A52414308FF
S315080001F08B4201D34B00C01A5241411A00D2014624
S31508000200524110467047FFE701B5002000F006F896
S3150800021002BDC0460029F7D076E770477047C0464A
S31508000220002B11D1002A0FD1002900D1002802D0B5
S315080002300021C943081C07B4024802A140180290CD
S3150800024003BDC046D9FFFFFF03B4684601B502984F
S3150800025000F006F8019B9E4602B00CBC7047C046EB
S31508000260F0B54F464646D646C0B5040082B00D00E6
S31508000270914698468B422FD82CD04146484600F0E6
S31508000280B1F829000600200000F0ACF8331A9C46A5
S31508000290203B9A4600D576E04B46524693401F00CF
S315080002A04B46624693401E00AF4228D825D0534697
S315080002B0A41BBD41002B00DA7BE00022002300923C
S315080002C001930123524693400193012362469340CA
S315080002D0009318E08242D0D90022002300920193AD
S315080002E00A9B002B01D01C605D600098019902B042
S315080002F01CBC90469946A246F0BDA342D7D9002217
S315080003000023009201936346002BE9D0FB07984629
S31508000310414672080A437B0866460EE0AB4201D1A5
S31508000320A2420CD8A41A9D41012024196D4100212E
S31508000330013E24184D41002E06D0AB42EED9013EAF
S3150800034024196D41002EF8D10098019953460019D9
S315080003506941002B23DB2B005246D3402A00644612
S31508000360E2401C0053461500002B2DDB260057469D
S31508000370BE40330026006746BE403200801A9941C7
S3150800038000900191ACE7624620239B1A4A46DA4060
S315080003906146130042468A4017001F4380E76246BB
S315080003A020239B1A2A0066469A402300F3401343EB
S315080003B0D4E76246202300219B1A0022009101926D
S315080003C00122DA40019280E72023624626009B1A22
S315080003D0DE402F00B0466646B74046463B003343EC
S315080003E0C8E7C04610B5002903D100F007F8203049
S315080003F002E0081C00F002F810BDC0461C210123CB
S315080004001B04984201D3000C10391B0A984201D3E9
S31508000410000A08391B09984201D30009043902A2C7
S31508000420105C40187047C04604030202010101012E
S315080004300000000000000000B0B598B000AF00F062
S31508000440A7FC00F0D5F800F049FA00F03BF900F0F7
S315080004509DF900F0DBF900F011FA5423FB18574A0E
S315080004601168196092889A804823FB18544A03CA6F
S3150800047003C312781A704023FB18524A03CA03C3EF
S315080004803423FB18504A03CA03C31188198092788B
S315080004909A703023FB184D4A12881A804C4BFB651C
S315080004A02423FB184B4A03CA03C311881980927880
S315080004B09A701823FB18484A03CA03C312881A807D
S315080004C00C23FB18454A03CA03C312881A803B004B
S315080004D0434A03CA03C312781A70424B20211800F4
S315080004E001F072F9FA239B00180000F0B1FC3E4BAC
S315080004F00121180001F02EF90300012B15D15B2507
S315080005007C19FB6D2422B91838480B2202F082FAAE
S31508000510030023707C19FB6D3022B9183348022278
S3150800052002F078FA0300237014E05B257C19FB6D52
S315080005301822B9182D480A2202F06CFA0300237013
S315080005407C19FB6D3022B9182848022202F062FA9B
S3150800055003002370244B0221180001F0FBF8030066
S31508000560012B15D15B257C19FB6D0C22B9181F4888
S315080005700A2202F04FFA030023707C19FB6D302221
S31508000580B9181A48022202F045FA03002370A4E7B4
S315080005905B257C19FB6D39001448092202F03AFAEA
S315080005A0030023707C19FB6D3022B9180F4802220C
S315080005B002F030FA030023708FE7C046C4340008FF
S315080005C0CC340008D8340008E0340008EC340008BD
S315080005D010270000F0340008FC340008083500082D
S315080005E0143500080004005000080050C40000201C
S315080005F090B59FB000AF40243B19180038231A0065
S31508000600002102F04BFF2C23FB18180014231A00B4
S31508000610002102F043FF3B1D180028231A00002181
S3150800062002F03CFF254B1B68254A1A40234B8021C4
S3150800063009010A431A6021007B1802221A607B18F6
S315080006400122DA607B1810221A617B1800229A624E
S315080006507B18180001F0F8F9031E01D000F0F2F932
S315080006602C217B180F221A607B1801225A607B18EE
S3150800067000229A607B180022DA607B1800221A6131
S315080006807B180021180001F0AFFD031E01D000F011
S31508000690D9F93B1D0A221A603B1D00221A613B1D2F
S315080006A000229A613B1D180001F082FF031E01D04B
S315080006B000F0C8F9C046BD461FB090BD00700040A6
S315080006C0FFE7FFFF80B582B000AF3B0018000823A4
S315080006D01A00002102F0E2FE294B2A4A1A60284B2A
S315080006E00022DA63264B00225A60254B00229A60C4
S315080006F0234B00229A63224B01221A61204B0022C7
S31508000700DA601F4B2022002199541D4B212200211B
S3150800071099541B4B00229A62194BC222FF325A6225
S31508000720174B2C2200219954154B04225A61144B5D
S3150800073000221A63124B00229A61114B00225A6357
S315080007400F4B0022DA610E4B180000F09FFB031EC8
S3150800075001D000F077F93B000B4A1A603B00802273
S3150800076052015A603A00064B1100180000F002FDCB
S31508000770031E01D000F066F9C046BD4602B080BD32
S3150800078044010020002401400010003080B500AF6D
S315080007901B4B1C4A1A601A4B1B4A5A60184B0022FC
S315080007A09A60174B0122DA60154B00221A61144B26
S315080007B000225A61124B00229A61114B0022DA611B
S315080007C00F4B00221A620E4B180001F00FF8031E99
S315080007D001D000F037F90A4B0021180001F09CF807
S315080007E0031E01D000F02EF9054B0021180001F078
S315080007F0DFF8031E01D000F025F9C046BD4680BDCE
S3150800080020000020005400405B3D300080B500AF5A
S31508000810184B194A1A60174B822252005A60154B18
S3150800082000229A60134B0022DA60124B00221A61EA
S31508000830104B00225A610F4B802292009A610D4B91
S315080008400022DA610B4B00221A620A4B00225A6216
S31508000850084B00229A62074B0722DA62054B1800FA
S3150800086002F01AF8031E01D000F0ECF8C046BD46A7
S3150800087080BDC0466C0000200030014080B500AF46
S31508000880144B154A1A60134B962292015A60114B63
S3150800089000229A600F4B0022DA600E4B00221A6182
S315080008A00C4B0C225A610B4B00229A61094B002211
S315080008B0DA61084B00221A62064B00225A62054B7F
S315080008C0180002F053F8031E01D000F0BBF8C0462A
S315080008D0BD4680BDC40000200044004090B589B0E4
S315080008E000AF0C243B19180014231A00002102F04B
S315080008F0D5FD514BDA6A504B04210A43DA624E4B56
S31508000900DB6A04221340BB60BB684B4BDA6A4A4B6E
S3150800091001210A43DA62484BDB6A012213407B60F5
S315080009207B68454BDA6A444B02210A43DA62424B3A
S31508000930DB6A022213403B603B68404B00222821B9
S31508000940180000F024FFA023DB050122102118005F
S3150800095000F01DFFE0231B0138480122190000F0B2
S3150800096016FF374B00222021180000F010FF3B1914
S31508000970C422FF321A603B1900225A603B19002232
S315080009809A603B192D4A1900100000F065FD2100F8
S315080009907B1828221A607B1801225A607B180022CD
S315080009A09A607B180022DA600C007B18234A19002B
S315080009B0100000F051FD21007B1810221A607B18E8
S315080009C001225A607B1801229A607B180022DA609D
S315080009D00C007A18A023DB051100180000F03CFD76
S315080009E021007B18E02212011A607B1801225A6046
S315080009F07B1801229A607B180022DA600C007B18AB
S31508000A000E4A1900100000F027FD21007B1820224D
S31508000A101A607B1801225A607B1800229A607B189C
S31508000A200022DA607B18064A1900100000F014FD4F
S31508000A30C046BD4609B090BD0010024000080050EF
S31508000A400004005080B500AFC046BD4680BD00001A
S31508000A5080B500AF074B5A6B064B01210A435A6310
S31508000A60044B9A6B034B802149050A439A63C04697
S31508000A70BD4680BD0010024080B588B000AF7860E2
S31508000A800C23FB18180014231A00002102F006FD97
S31508000A907B681B68144A934222D1144B5A6B134B3A
S31508000AA0802189000A435A63104BDA6A0F4B0421E6
S31508000AB00A43DA620D4BDB6A04221340BB60BB684B
S31508000AC00C217B1804221A607B1803225A607B18B3
S31508000AD000229A607B18064A1900100000F0BCFC38
S31508000AE0C046BD4608B080BD002401400010024043
S31508000AF00008005080B588B000AF78600C23FB185A
S31508000B00180014231A00002102F0C8FC7B681B6831
S31508000B10184A93422AD1184BDA6A174B01210A431D
S31508000B20DA62154BDB6A01221340BB60BB680C21F5
S31508000B307B18C022D2001A607B1812225A607B18D2
S31508000B4001229A607B180322DA607B1806221A6152
S31508000B507A18A023DB051100180000F07DFC064B6F
S31508000B609A6B054B802189030A439A63C046BD46A2
S31508000B7008B080BD005400400010024080B588B01F
S31508000B8000AF78600C23FB18180014231A00002104
S31508000B9002F084FC7B681B68184A934229D1184BDB
S31508000BA05A6B174B802149010A435A63144BDA6A78
S31508000BB0134B01210A43DA62114BDB6A0122134007
S31508000BC0BB60BB680C217B18E0221A607B180222E6
S31508000BD05A607B1800229A607B180322DA607B1819
S31508000BE000221A617A18A023DB051100180000F00C
S31508000BF033FCC046BD4608B080BDC0460030014043
S31508000C000010024080B588B000AF78600C23FB184E
S31508000C10180014231A00002102F040FC7B681B68A8
S31508000C20184A934229D1184B9A6B174B802189028F
S31508000C300A439A63144BDA6A134B01210A43DA62B0
S31508000C40114BDB6A01221340BB60BB680C217B1881
S31508000C500C221A607B1802225A607B1800229A60BE
S31508000C607B180322DA607B1804221A617A18A023FB
S31508000C70DB051100180000F0EFFBC046BD4608B0C2
S31508000C8080BDC046004400400010024080B500AF59
S31508000C90C046BD4680BD80B500AFFEE780B500AF53
S31508000CA0C046BD4680BD80B500AFC046BD4680BDC6
S31508000CB080B500AF00F0B6F8C046BD4680BD00005E
S31508000CC080B500AF174B1A68164B802149000A43B6
S31508000CD01A60144BDA68134B13490A40DA60114B51
S31508000CE01A68104B11490A401A600E4B9A680D4B48
S31508000CF001218A439A600B4B1A680A4B0C490A4031
S31508000D001A60084BDA68074B0A490A40DA60054B4D
S31508000D1000221A61084B802212059A60C046BD4619
S31508000D2080BDC046001002400C40FF88F6FFF6FE64
S31508000D30FFFFFBFFFFFF02FF00ED00E00D488546C1
S31508000D40002103E00C4B5B58435004310B480C4B15
S31508000D5042189A42F6D30B4A02E000231360043283
S31508000D60094B9A42F9D3FFF7ABFF02F073FBFFF783
S31508000D7063FBFEE7005000209C35000800000020B9
S31508000D800400002004000020A4010020FEE7000063
S31508000D9080B582B000AFFB1D00221A700B4B1A6893
S31508000DA00A4B40210A431A60002000F011F8031E7E
S31508000DB003D0FB1D01221A7001E0FFF749FEFB1D57
S31508000DC01B781800BD4602B080BDC0460020024010
S31508000DD080B584B000AF78600F23FB1800221A7024
S31508000DE00F4B1A68FA2399001000FFF78DF90300D4
S31508000DF0180000F024FB031E04D00F23FB18012261
S31508000E001A7006E0796801235B420022180000F098
S31508000E1001FB0F23FB181B781800BD4604B080BDE4
S31508000E200000002080B500AF034B1B685A1C024B1C
S31508000E301A60C046BD4680BDA001002080B500AF3F
S31508000E40024B1B681800BD4680BDC046A0010020A5
S31508000E5080B584B000AF7860FFF7F0FF0300BB6091
S31508000E607B68FB60FB68013302D0FB680133FB60DB
S31508000E70C046FFF7E3FF0200BB68D31AFA689A4236
S31508000E80F7D8C046BD4604B080BD000080B582B024
S31508000E9000AF78607B68002B01D1012359E17B689C
S31508000EA05B6D002B0AD17B6800229A657B6850220D
S31508000EB0002199547B681800FFF7DEFD7B685B6D9F
S31508000EC010221340102B05D07B681B689B680422F0
S31508000ED013400BD07B685B6D10221A437B685A65FA
S31508000EE07B68502200219954012332E17B685B6DAF
S31508000EF09A4A134002221A437B685A657B681B6824
S31508000F009B6803221340012B08D17B681B681B686A
S31508000F1001221340012B01D1012300E00023002BFD
S31508000F2049D17B685A68C0231B069A420BD07B6856
S31508000F305A688023DB059A4205D07B685A68802365
S31508000F401B069A4211D17B681B681A697B681B6865
S31508000F50920092081A617B681B6819697B685A684F
S31508000F607B681B680A431A6114E07B681B681A6968
S31508000F707B681B68920092081A61794B1A68784B4D
S31508000F8078490A401A60764B19687B685A68744B28
S31508000F900A431A607B681B68DA687B681B68182135
S31508000FA08A43DA607B681B68D9687B689A687B68BD
S31508000FB01B680A43DA606A4B1A68694B6A490A4031
S31508000FC01A60674B19687B685B6B5A06644B0A4361
S31508000FD01A607B681B689A6880235B05134008D1F2
S31508000FE07B681B689A687B681B68802149050A43E9
S31508000FF09A607B681B68DA687B681B685B490A40ED
S31508001000DA607B681B68D9687B68DA687B681B6965
S31508001010022B01D1042300E000231A437B68202019
S315080010201B5C5B031A437B682C201B5C5B001A4322
S315080010307B681B6B1A437B689B699B031A437B6817
S31508001040DB69DB031A437B681B680A43DA607B6843
S315080010505A6AC223FF339A420BD07B681B68D96849
S315080010607B685A6A7B689B6A1A437B681B680A43D3
S31508001070DA607B6821229B5C012B1AD17B682022CF
S315080010809B5C002B09D17B681B68DA687B681B6848
S31508001090802149020A43DA600BE07B685B6D2022F7
S315080010A01A437B685A657B689B6D01221A437B68E5
S315080010B09A657B68DB6B012B1FD17B681B681A69F5
S315080010C07B681B682A490A401A617B681B6819698C
S315080010D07B681A6C7B685B6C1A437B689B6C1A434B
S315080010E07B681B680A431A617B681B681A697B68F8
S315080010F01B6801210A431A610EE07B681B681B699D
S3150800110001221340012B07D17B681B681A697B688B
S315080011101B6801218A431A617B681B685A697B68C8
S315080011201B6807218A435A617B681B6859697B6873
S315080011309A6B7B681B680A435A617B6800229A652A
S315080011407B685B6D0322934301221A437B685A65C9
S3150800115000231800BD4602B080BDC046FDFEFFFF55
S3150800116008270140FFFFC3FFFFFFFFFD1902FEFF2F
S3150800117003FCFFFF80B582B000AF786039607B68FA
S3150800118050229B5C012B01D1022385E07B6850220B
S31508001190012199547B681B689B68042213400BD075
S315080011A07B685B6D20221A437B685A657B685022F0
S315080011B00021995401236FE03B685B68384A9342E3
S315080011C035D07B681B68996A3B681B685B035A0BBA
S315080011D07B681B680A439A623B681A688023DB02AD
S315080011E0134009D02F4B1A682E4B802109040A4355
S315080011F01A600A2000F05EF83B681A6880239B0292
S31508001200134006D0274B1A68264B8021C9030A4388
S315080012101A603B681A6880235B02134037D0214B5B
S315080012201A68204B802149040A431A602FE07B681C
S315080012301B689A6A3B681B685B035B0BD9437B6830
S315080012401B680A409A623B681A688023DB021340CF
S3150800125005D0144B1A68134B13490A401A603B68A9
S315080012601A6880239B02134005D00E4B1A680D4B53
S315080012700E490A401A603B681A6880235B021340CD
S3150800128005D0084B1A68074B09490A401A607B685B
S3150800129050220021995400231800BD4602B080BD93
S315080012A00110000008270140FFFF7FFFFFFFBFFF77
S315080012B0FFFFFFFE80B584B000AF78600A4B1B685D
S315080012C00A491800FEF720FF03001A007B685343FB
S315080012D0FB6002E0FB68013BFB60FB68002BF9D171
S315080012E0C046BD4604B080BD0000002040420F0045
S315080012F090B583B000AF02003960FB1D1A70FB1D64
S315080013001B787F2B32D92F4AFB1D1B7819000F2318
S315080013100B40083B9B0806339B00D31804331B6815
S31508001320FA1D1278110003220A40D200FF219140CB
S315080013300A00D2431A4011003B689B01FF221A405B
S31508001340FB1D1B78180003230340DB009A401D4849
S31508001350FB1D1B781C000F232340083B9B080A43F0
S3150800136006339B00C31804331A6027E0164AFB1D90
S315080013701B785BB29B08C0339B009B58FA1D1278FA
S31508001380110003220A40D200FF2191400A00D243ED
S315080013901A4011003B689B01FF221A40FB1D1B786F
S315080013A0180003230340DB009A400748FB1D1B78FF
S315080013B05BB29B080A43C0339B001A50C046BD4621
S315080013C003B090BD00ED00E000E100E080B582B01A
S315080013D000AF78607B68013B0C4A934201D9012330
S315080013E010E00B4B7A68013A5A6001235B420321ED
S315080013F01800FFF77DFF064B00229A60044B072270
S315080014001A6000231800BD4602B080BDFFFFFF002A
S3150800141010E000E080B584B000AFB9607A600F21B3
S315080014207B18021C1A70BA687B181B785BB211000D
S315080014301800FFF75DFFC046BD4604B080BD80B505
S3150800144082B000AF78607B681800FFF7BFFF030023
S315080014501800BD4602B080BD80B586B000AF786082
S31508001460396000237B610023FB6000233B6155E163
S315080014703B681B6801217A6991400A001340FB60AA
S31508001480FB68002B00D146E13B685B68022B03D062
S315080014903B685B68122B23D17B69DA087B680832C4
S315080014A09200D3583B617B69072213409B000F22A9
S315080014B09A401300DA433B6913403B613B681A695B
S315080014C07B6907210B409B009A4013003A69134336
S315080014D03B617B69DA087B68083292003969D1502A
S315080014E03B685B68012B0BD03B685B68022B07D017
S315080014F03B685B68112B03D03B685B68122B30D1C5
S315080015007B689B683B617B695B0003229A401300FA
S31508001510DA433B6913403B613B68DA687B695B00E9
S315080015209A4013003A6913433B617B683A699A60AB
S315080015307B685B683B6101227B699A401300DA434A
S315080015403B6913403B613B685B681B0901221A40F3
S315080015507B699A4013003A6913433B617B683A6991
S315080015605A607B681B683B617B695B0003229A4073
S315080015701300DA433B6913403B613B685B6803220F
S315080015801A407B695B009A4013003A6913433B6132
S315080015907B683A691A607B68DB683B617B695B003C
S315080015A003229A401300DA433B6913403B613B68C8
S315080015B09A687B695B009A4013003A6913433B615A
S315080015C07B683A69DA603B685A6880235B05134092
S315080015D000D1A0E0574B5A6B564B01210A435A6378
S315080015E0554A7B699B0802339B009B583B617B6984
S315080015F0032213409B000F229A401300DA433B69EB
S3150800160013403B617A68A023DB059A421FD07B68AA
S315080016104A4A934219D07B68494A934213D07B6859
S31508001620484A93420DD07B68474A934207D07B6865
S31508001630464A934201D105230AE0062308E004231B
S3150800164006E0032304E0022302E0012300E000236E
S315080016507A6903210A40920093403A6913433B6131
S3150800166035497B699B0802339B003A695A50384BC7
S315080016701B683B61FB68DA433B6913403B613B6887
S315080016805A6880235B02134003D03A69FB68134308
S315080016903B612F4B3A691A602D4B5B683B61FB68CF
S315080016A0DA433B6913403B613B685A6880239B02D7
S315080016B0134003D03A69FB6813433B61244B3A69EC
S315080016C05A60234B9B683B61FB68DA433B691340CE
S315080016D03B613B685A6880235B03134003D03A6931
S315080016E0FB6813433B611A4B3A699A60184BDB68EF
S315080016F03B61FB68DA433B6913403B613B685A68C8
S3150800170080239B03134003D03A69FB6813433B616C
S315080017100F4B3A69DA607B6901337B613B681A686B
S315080017207B69DA40131E00D0A2E6C046BD4606B065
S3150800173080BDC04600100240000001400004005071
S3150800174000080050000C005000100050001C00500B
S315080017500004014080B584B000AF78600A00BB1C65
S315080017601A807B681B69BA1C1288134004D00F23A1
S31508001770FB1801221A7003E00F23FB1800221A70C7
S315080017800F23FB181B781800BD4604B080BD80B532
S3150800179082B000AF786008001100BB1C021C1A80DA
S315080017A07B1C0A1C1A707B1C1B78002B04D0BB1CE4
S315080017B01A887B689A6103E0BB1C1A887B689A6260
S315080017C0C046BD4602B080BD80B582B000AF786025
S315080017D00A00BB1C1A807B685A69BB1C1B885A40C6
S315080017E07B685A61C046BD4602B080BD80B582B0EE
S315080017F000AF78607B68002B01D1012382E07B680B
S3150800180041229B5CDBB2002B07D17B68402200217A
S3150800181099547B681800FFF76DF97B6841222421EB
S3150800182099547B681B681A687B681B6801218A4380
S315080018301A607B685A687B681B6834490A401A61D3
S315080018407B681B689A687B681B6831490A409A60FE
S315080018507B68DB68012B08D17B689A687B681B6804
S31508001860802109020A439A6007E07B689A687B68C8
S315080018701B68842109020A439A607B68DB68022B8D
S3150800188004D17B681B68802212015A607B681B683A
S315080018905A687B681B681F490A435A607B681B683D
S315080018A0DA687B681B681A490A40DA607B681A6935
S315080018B07B685B691A4311007B689B691A027B681F
S315080018C01B680A43DA607B68D9697B681A6A7B6891
S315080018D01B680A431A607B681B681A687B681B6862
S315080018E001210A431A607B6800225A647B684122F8
S315080018F0202199547B6800221A637B6842220021C2
S31508001900995400231800BD4602B080BDFFFFFFF0C2
S31508001910FF7FFFFF0080000280B582B000AF7860CD
S3150800192039607B6841229B5CDBB2202B38D17B680F
S3150800193040229B5C012B01D1022332E07B684022C6
S31508001940012199547B684122242199547B681B689C
S315080019501A687B681B6801218A431A607B681B68C2
S315080019601A687B681B6811490A401A607B681B68FD
S3150800197019687B681B683A680A431A607B681B68A3
S315080019801A687B681B6801210A431A607B68412232
S31508001990202199547B68402200219954002300E0B5
S315080019A002231800BD4602B080BDC046FFEFFFFF08
S315080019B080B584B000AF786039607B6841229B5C53
S315080019C0DBB2202B39D17B6840229B5C012B01D1ED
S315080019D0022333E07B684022012199547B68412227
S315080019E0242199547B681B681A687B681B68012147
S315080019F08A431A607B681B681B68FB60FB68114A90
S31508001A001340FB603B681B02FA681343FB607B6864
S31508001A101B68FA681A607B681B681A687B681B680B
S31508001A2001210A431A607B684122202199547B6868
S31508001A30402200219954002300E002231800BD46E5
S31508001A4004B080BDFFF0FFFFB0B58AB000AF786084
S31508001A507B68002B02D1012300F0BCFBC84BDB6876
S31508001A600C221340FB61C64BDA6880235B021340E5
S31508001A70BB617B681B680122134000D17EE0FB69CD
S31508001A80082B07D0FB690C2B12D1BA6980235B029D
S31508001A909A420DD1BA4B1A6880239B02134000D193
S31508001AA06BE07B685B68002B67D1012300F092FB33
S31508001AB07B685A6880235B029A4207D1B04B1A6842
S31508001AC0AF4B802149020A431A6027E07B685A68AF
S31508001AD0A023DB029A420ED1A94B1A68A84B802193
S31508001AE0C9020A431A60A64B1A68A54B8021490207
S31508001AF00A431A6012E0A24B1A68A14BA1490A4090
S31508001B001A609F4B1A6880235B021340FB60FB68D0
S31508001B109B4B1A689A4B9C490A401A607B685B681B
S31508001B20002B15D0FFF78AF903007B6109E0FFF760
S31508001B3085F902007B69D31A642B02D9032300F0C6
S31508001B4049FB8F4B1A6880239B021340EFD015E0A0
S31508001B50FFF774F903007B6108E0FFF76FF90200ED
S31508001B607B69D31A642B01D9032333E3844B1A68A0
S31508001B7080239B021340F0D100E0C0467B681B68B7
S31508001B800222134000D198E07B68DB687B627B6A9F
S31508001B902022134009D07A4B1A68794B20210A4330
S31508001BA01A607B6A202293437B62FB69042B05D06B
S31508001BB0FB690C2B3DD1BB69002B3AD1704B1B68D6
S31508001BC00422134004D07B6A002B01D1012301E3D0
S31508001BD06B4B5B686D4A134019007B681B691A02D8
S31508001BE0674B0A435A60664B1B68092293431900E0
S31508001BF0634B7A6A0A431A6000F020FC0100604BC6
S31508001C00DB681B090F221340614AD35C0A00DA40DD
S31508001C10604B1A6013257C190020FFF7D9F80300DA
S31508001C2023707B191B78002B47D01323FB181B78CE
S31508001C30D0E27B6A002B27D0514B1B6809229343BD
S31508001C4019004F4B7A6A0A431A60FFF7F7F8030040
S31508001C507B6108E0FFF7F2F802007B69D31A022BD2
S31508001C6001D90323B6E2464B1B6804221340F1D080
S31508001C70434B5B68454A134019007B681B691A0287
S31508001C803F4B0A435A6018E03D4B1A683C4B01210A
S31508001C908A431A60FFF7D2F803007B6108E0FFF772
S31508001CA0CDF802007B69D31A022B01D9032391E2EE
S31508001CB0334B1B6804221340F1D17B681B68102242
S31508001CC0134000D19FE0FB69002B3FD12C4B1A68CB
S31508001CD080239B00134005D07B68DB69002B01D16C
S31508001CE0012377E2264B5B682B4A134019007B6871
S31508001CF05A6A234B0A435A60214B5B681B02190A2E
S31508001D007B681B6A1A061E4B0A435A607B685B6A25
S31508001D105B0B0133802212029A40194BDB681B09C0
S31508001D200F210B401A49CB5CDA401A4B1A6013256F
S31508001D307C190020FFF74CF8030023707B191B78E9
S31508001D40002B60D01323FB181B7843E27B68DB6902
S31508001D50002B3ED00A4B1A68094B802149000A43DA
S31508001D601A60FFF76BF803007B6117E0FFF766F868
S31508001D7002007B69D31A022B10D903232AE2C04634
S31508001D8000100240FFFFFEFFFFFFFBFFFFE0FFFF23
S31508001D902035000800000020FF1FFFFFC64B1A6809
S31508001DA080239B001340E1D0C34B5B68C34A1340B2
S31508001DB019007B685A6AC04B0A435A60BE4B5B6877
S31508001DC01B02190A7B681B6A1A06BB4B0A435A6030
S31508001DD019E0B94B1A68B84BB9490A401A60FFF7B7
S31508001DE02DF803007B6108E0FFF728F802007B69FD
S31508001DF0D31A022B01D90323ECE1AF4B1A688023CF
S31508001E009B001340F0D17B681B680822134036D02C
S31508001E107B685B69002B19D0A74B1A6DA64B01216D
S31508001E200A431A65FFF70AF803007B6108E0FFF723
S31508001E3005F802007B69D31A022B01D90323C9E1ED
S31508001E409D4B1B6D02221340F1D018E09A4B1A6D78
S31508001E50994B01218A431A65FEF7F0FF03007B615F
S31508001E6008E0FEF7EBFF02007B69D31A022B01D9C3
S31508001E700323AFE1904B1B6D02221340F1D17B681F
S31508001E801B680422134000D1AFE02323FB1800226D
S31508001E901A70894B9A6B80235B0513400AD1864BCF
S31508001EA09A6B854B802149050A439A632323FB18BD
S31508001EB001221A70834B1A6880235B0013401AD1DB
S31508001EC0804B1A687F4B802149000A431A60FEF747
S31508001ED0B5FF03007B6108E0FEF7B0FF02007B69EF
S31508001EE0D31A642B01D9032374E1764B1A6880232D
S31508001EF05B001340F0D07B689A6880235B009A42A7
S31508001F0007D16D4B1A6D6C4B802149000A431A653F
S31508001F1031E07B689B68002B0CD1674B1A6D664BCA
S31508001F2067490A401A65644B1A6D634B66490A404D
S31508001F301A6520E07B689A68A023DB009A420ED1D6
S31508001F405D4B1A6D5C4B8021C9000A431A655A4BD2
S31508001F501A6D594B802149000A431A650BE0564B06
S31508001F601A6D554B56490A401A65534B1A6D524B12
S31508001F7055490A401A657B689B68002B15D0FEF701
S31508001F805DFF03007B6109E0FEF758FF02007B69ED
S31508001F90D31A4E4A934201D903231BE1464B1A6DC5
S31508001FA080239B001340EFD014E0FEF747FF0300A1
S31508001FB07B6109E0FEF742FF02007B69D31A434AB8
S31508001FC0934201D9032305E13B4B1A6D80239B00FD
S31508001FD01340EFD12323FB181B78012B05D1364B71
S31508001FE09A6B354B3A490A409A637B681B682022EC
S31508001FF0134049D07B689B69002B26D02E4B9A68E4
S315080020002D4B01210A439A602B4B5A6B2A4B01210F
S315080020100A435A632F4B1A6A2E4B802189010A43B9
S315080020201A62FEF70BFF03007B6108E0FEF706FF66
S3150800203002007B69D31A022B01D90323CAE01E4B7F
S315080020409B6802221340F1D01EE01B4B9A681A4B7C
S3150800205001218A439A601F4B1A6A1E4B1E490A4081
S315080020601A62FEF7EBFE03007B6108E0FEF7E6FE68
S3150800207002007B69D31A022B01D90323AAE00E4B6F
S315080020809B6802221340F1D17B689B6A002B00D122
S315080020909FE0FB690C2B00D178E07B689B6A022BDA
S315080020A059D1054B1A68044B0C490A401A60FEF7C9
S315080020B0C5FE03007B611CE000100240FF1FFFFF06
S315080020C0FFFEFFFF00700040FFFBFFFF88130000C4
S315080020D0FFFFFFEF00000140FFDFFFFFFFFFFFFEEE
S315080020E0FEF7ACFE02007B69D31A022B01D9032343
S315080020F070E03A4B1A6880239B041340F0D1374BA3
S31508002100DB68374A134019007B68DA6A7B681B6B01
S315080021101A437B685B6B1A43304B0A43DA602F4BD2
S315080021201A682E4B802149040A431A60FEF786FE78
S3150800213003007B6108E0FEF781FE02007B69D31A83
S31508002140022B01D9032345E0244B1A6880239B04FC
S315080021501340F0D03DE0214B1A68204B21490A4034
S315080021601A60FEF76BFE03007B6108E0FEF766FE69
S3150800217002007B69D31A022B01D903232AE0174BE5
S315080021801A6880239B041340F0D122E07B689B6A7F
S31508002190012B01D101231DE0104BDB68BB61BA6935
S315080021A080235B021A407B68DB6A9A420FD1BA69C0
S315080021B0F0239B031A407B681B6B9A4207D1BA69C6
S315080021C0C0231B041A407B685B6B9A4201D001232B
S315080021D000E000231800BD460AB0B0BD001002405A
S315080021E0FFFF02FFFFFFFFFEB0B584B000AF7860C7
S315080021F039607B68002B01D101230DE1884B1B68F0
S31508002200012213403A689A4211D9854B1B6801226C
S3150800221093431900824B3A680A431A60804B1B683D
S31508002220012213403A689A4201D00123F4E07B6800
S315080022301B680222134009D07A4BDB68F0229343CD
S3150800224019007B689A68774B0A43DA607B681B68D3
S315080022500122134000D189E07B685B68022B07D115
S31508002260704B1A6880239B02134020D10123D3E0C8
S315080022707B685B68032B07D16A4B1A6880239B042B
S31508002280134014D10123C7E07B685B68012B06D194
S31508002290644B1B680422134009D10123BCE0614B3F
S315080022A01A6880239B00134001D10123B4E05D4BDB
S315080022B0DB680322934319007B685A68594B0A4323
S315080022C0DA60FEF7BBFD0300FB607B685B68022BE8
S315080022D011D109E0FEF7B2FD0200FB68D31A524A93
S315080022E0934201D9032397E04E4BDB680C22134037
S315080022F0082BEFD13AE07B685B68032B11D109E024
S31508002300FEF79CFD0200FB68D31A474A934201D99F
S31508002310032381E0434BDB680C2213400C2BEFD1DF
S3150800232024E07B685B68012B1BD109E0FEF786FD7C
S315080023300200FB68D31A3C4A934201D903236BE097
S31508002340384BDB680C221340042BEFD10EE0FEF766
S3150800235075FD0200FB68D31A334A934201D9032359
S315080023605AE0304BDB680C221340F0D12C4B1B682B
S31508002370012213403A689A4211D2294B1B6801225E
S3150800238093431900264B3A680A431A60244B1B6884
S31508002390012213403A689A4201D001233CE07B6847
S315080023A01B680422134009D01E4BDB681F4A1340E2
S315080023B019007B68DA681B4B0A43DA607B681B687E
S315080023C0082213400AD0174BDB68194A1340190034
S315080023D07B681B69DA00134B0A43DA6000F02EF8B3
S315080023E00100104BDB681B090F221340114AD35C0E
S315080023F00A00DA40104B1A600B257C190020FEF7FC
S31508002400E7FC030023707B191B78002B03D00B23F2
S31508002410FB181B7800E000231800BD4604B0B0BDC9
S31508002420002002400010024088130000FFF8FFFF5A
S31508002430FFC7FFFF203500080000002080B586B0E2
S3150800244000AF3B4BDB68FB60FB680C221340082B94
S315080024500ED00C2B0FD0042B57D1354B1B681022EE
S31508002460134002D0334B3B615DE0334B3B615AE08E
S31508002470324B3B6157E0FB689B0C0F221340304AF6
S31508002480D35CBB60FB689B0D0322134001337B6062
S31508002490274BDA6880235B0213400FD0B9680A001D
S315080024A05201521A93019B1ADB005B185B0279688A
S315080024B01800FDF729FE03007B6123E01C4B1B680F
S315080024C0102213400FD0B9680A005201521A93011C
S315080024D09B1ADB005B181B0279681800FDF714FECF
S315080024E003007B610EE0B9680A005201521A930193
S315080024F09B1ADB005B189B0279681800FDF704FE3F
S3150800250003007B617B693B610DE0094B5B685B0BF4
S31508002510072213403B603B680133802212029A402F
S3150800252013003B61C0463B691800BD4606B080BD36
S315080025300010024000093D000024F40000127A0051
S315080025403835000880B500AF024B1B681800BD4639
S3150800255080BDC0460000002080B500AFFFF7F2FF3F
S315080025600100064BDB681B0A07221340044AD35CAA
S31508002570D9400B001800BD4680BDC0460010024079
S315080025803035000880B500AFFFF7DCFF0100064BC9
S31508002590DB68DB0A07221340044AD35CD9400B00E8
S315080025A01800BD4680BDC046001002403035000800
S315080025B080B586B000AF78607B681B682022134020
S315080025C006D17B681A6880231B01134000D1DDE021
S315080025D01723FB1800221A70A44B9A6B80235B05FD
S315080025E013400AD1A14B9A6BA04B802149050A4397
S315080025F09A631723FB1801221A709D4B1A688023C9
S315080026005B0013401AD19A4B1A68994B80214900EE
S315080026100A431A60FEF712FC03003B6108E0FEF766
S315080026200DFC02003B69D31A642B01D9032318E178
S315080026308F4B1A6880235B001340F0D08B4B1A68C7
S31508002640C0239B031340FB607B685A68C0239B0327
S315080026501340FA689A4207D17B689A68C0239B039D
S315080026601340FA689A4213D07B685A68C0239B02C3
S315080026701A40C0239B029A420AD17C4B1A688023CF
S315080026809B021A4080239B029A4201D10123E8E06B
S31508002690764B1A6DC0239B021340FB60FB68002B28
S315080026A049D07B685A68C0239B021340FA689A424D
S315080026B004D07B681B68202213400DD17B689A687A
S315080026C0C0239B021340FA689A4234D07B681A6882
S315080026D080231B0113402ED0644B1B6D654A1340A3
S315080026E0FB60624B1A6D614B802109030A431A6528
S315080026F05E4B1A6D5D4B60490A401A655B4BFA687A
S315080027001A65FA6880235B00134014D0FEF796FB1F
S3150800271003003B6109E0FEF791FB02003B69D31A0F
S31508002720564A934201D903239BE0504B1A6D8023E6
S315080027309B001340EFD07B685A68C0239B021A405F
S31508002740C0239B029A420CD1484B1B684C4A134043
S3150800275019007B685A68C0239B031A40434B0A43F7
S315080027601A60424B196D7B685A68C0239B021A404F
S315080027703E4B0A431A651723FB181B78012B05D114
S315080027803A4B9A6B394B3F490A409A637B681B68F8
S315080027900122134009D0354BDB6C03229343190001
S315080027A07B68DA68314B0A43DA647B681B68022265
S315080027B0134009D02D4BDB6C0C22934319007B6820
S315080027C01A692A4B0A43DA647B681B680422134099
S315080027D009D0264BDB6C2C4A134019007B685A69D2
S315080027E0224B0A43DA647B681B680822134009D027
S315080027F01E4BDB6C254A134019007B689A691B4BF4
S315080028000A43DA647B681A6880235B00134009D0A0
S31508002810164BDB6C174A134019007B68DA69134BB1
S315080028200A43DA647B681B684022134009D00F4BC1
S31508002830DB6C174A134019007B685A6A0B4B0A432C
S31508002840DA647B681B688022134009D0074BDB6C6F
S31508002850104A134019007B681A6A044B0A43DA6463
S3150800286000231800BD4606B080BDC04600100240D1
S3150800287000700040FFFFFCFFFFFFF7FF8813000012
S31508002880FFFFCFFFFFFFFFEFFFF3FFFFFFCFFFFFC6
S31508002890FFFFFFFBFFFFF3FF80B582B000AF786054
S315080028A07B68002B01D1012359E07B6800229A62DC
S315080028B07B6851229B5CDBB2002B07D17B685022D8
S315080028C0002199547B681800FEF758F97B68512255
S315080028D0022199547B681B681A687B681B6840212B
S315080028E08A431A607B685A687B689B681A437B68C8
S315080028F0DB681A437B681B691A437B685B691A4362
S315080029007B68996980239B000B401A437B68DB69C7
S315080029101A437B681B6A1A4311007B689A6A7B68AC
S315080029201B680A431A607B689B691B0C04221340C8
S3150800293019007B685A6A7B681B680A435A607B6879
S315080029401B68DA697B681B6807490A40DA617B6895
S3150800295000225A657B6851220121995400231800E8
S31508002960BD4602B080BDC046FFF7FFFF80B582B006
S3150800297000AF78607B68002B01D1012344E07B68B7
S315080029805B6F002B07D17B687022002199547B6806
S315080029901800FEF737F97B6824225A677B681B689C
S315080029A01A687B681B6801218A431A607B681800CD
S315080029B000F0D8F80300012B01D1012324E07B683D
S315080029C05B6A002B03D07B68180000F0FFFB7B686E
S315080029D01B685A687B681B680D490A405A607B6801
S315080029E01B689A687B681B682A218A439A607B68F9
S315080029F01B681A687B681B6801210A431A607B6892
S31508002A00180000F097FC03001800BD4602B080BD10
S31508002A10FFB7FFFF80B58AB002AFF860B9603B60C8
S31508002A20BB1D1A80FB685B6F202B00D094E0BB6847
S31508002A30002B03D0BB1D1B88002B01D101238CE082
S31508002A40FB689A6880235B019A4209D1FB681B6977
S31508002A50002B05D1BB680122134001D001237CE07D
S31508002A60FB6870229B5C012B01D1022375E0FB6891
S31508002A70702201219954FB680022DA67FB6821223B
S31508002A805A67FEF7DBF903007B61FB68BA1D502124
S31508002A9012885A52FB68BA1D522112885A52FB688C
S31508002AA09A6880235B019A4208D1FB681B69002B50
S31508002AB004D10023FB61BB68BB6103E0BB68FB6113
S31508002AC00023BB612CE07A69F8683B680093130021
S31508002AD00022802100F074FC031E01D003233CE091
S31508002AE0FB69002B0BD1BB691B881A00FB681B68A6
S31508002AF0D205D20D9A62BB690233BB6107E0FB6956
S31508002B001A78FB681B689A62FB690133FB61FB68EC
S31508002B1052229B5A9BB2013B99B2FB6852229952A8
S31508002B20FB6852229B5A9BB2002BCCD17A69F86873
S31508002B303B68009313000022402100F041FC031E6D
S31508002B4001D0032309E0FB6820225A67FB6870223C
S31508002B5000219954002300E002231800BD4608B05E
S31508002B6080BD0000B0B58EB000AFF8611B231822F7
S31508002B709446BC44634410221A700023FB62132354
S31508002B8018229446BC44634400221A7000237B62D0
S31508002B90FB699A68FB691B691A43FB695B691A43F7
S31508002BA0FB69DB6913437B63FB691B681B68CA4ABD
S31508002BB013401900FB691B687A6B0A431A60FB69A4
S31508002BC01B685B68C54A13401900FB69DA68FB692C
S31508002BD01B680A435A60FB699B697B63FB691B6830
S31508002BE0BF4A934204D0FB691B6A7A6B13437B6323
S31508002BF0FB691B689B68BB4A13401900FB691B6885
S31508002C007A6B0A439A60FB691B68B74A934234D1C8
S31508002C10B64BDB6C03221340012B15D004D3022BD1
S31508002C200AD0032B18D01FE01B2318229446BC4455
S31508002C30634401221A70C5E01B2318229446BC443B
S31508002C40634402221A70BDE01B2318229446BC4432
S31508002C50634404221A70B5E01B2318229446BC4428
S31508002C60634408221A70ADE01B2318229446BC441C
S31508002C70634410221A70C046A4E0FB691B689C4A8C
S31508002C80934237D1994BDB6C0C221340042B18D096
S31508002C9002D8002B05D024E0082B0AD00C2B18D01C
S31508002CA01FE01B2318229446BC44634400221A7072
S31508002CB088E01B2318229446BC44634402221A70F7
S31508002CC080E01B2318229446BC44634404221A70ED
S31508002CD078E01B2318229446BC44634408221A70E1
S31508002CE070E01B2318229446BC44634410221A70D1
S31508002CF0C04667E0FB691B687E4A934207D11B23DF
S31508002D0018229446BC44634400221A705AE0FB69B0
S31508002D101B68794A934207D11B2318229446BC4460
S31508002D20634400221A704DE0FB691B686C4A9342A3
S31508002D3041D16E4BDA6CC0231B0113408022D200AE
S31508002D4093421FD08022D200934202D8002B09D08A
S31508002D5028E08022120193420CD0C022120193422D
S31508002D6018D01FE01B2318229446BC446344002253
S31508002D701A7027E01B2318229446BC446344022297
S31508002D801A701FE01B2318229446BC44634404228D
S31508002D901A7017E01B2318229446BC446344082281
S31508002DA01A700FE01B2318229446BC446344102271
S31508002DB01A70C04606E01B2318229446BC44634496
S31508002DC010221A70FB691B68454A934200D09DE0A1
S31508002DD01B2318229446BC4463441B78022B0DD04F
S31508002DE002DC002B05D01DE0042B12D0082B15D0D1
S31508002DF018E0FFF7B1FB03007B621BE03B4B1B6847
S31508002E001022134002D03D4B7B6213E03C4B7B62A1
S31508002E1010E0FFF713FB03007B620BE080231B0225
S31508002E207B6207E0132318229446BC4463440122BC
S31508002E301A70C0467B6A002B00D1A6E1FB695A6866
S31508002E4013005B009B187A6A9A4205D3FB695B6894
S31508002E501B037A6A9A4207D9132318229446BC445C
S31508002E60634401221A7090E17B6A3B6100237B610F
S31508002E7039697A690B001B0E100005021D430B0009
S31508002E801C02FB695B685B08BB600023FB60B868D3
S31508002E90F96800196941FB695B683B6000237B6040
S31508002EA03A687B68FDF7BCF903000C00FB62FB6A15
S31508002EB0144A934208D9FB6A134A934204D8FB6919
S31508002EC01B68FA6ADA6060E1132318229446BC4448
S31508002ED0634401221A7058E1F369FFEFFFCFFFFF41
S31508002EE000480040FFF4FFFF003801400010024090
S31508002EF000440040004C00400050004000093D00DE
S31508002F000024F400FF020000FFFF0F00FB69DA69E6
S31508002F1080231B029A4200D0A9E01B23182294465C
S31508002F20BC4463441B78082B6DD89A009F4BD31872
S31508002F301B689F46FFF710FB03005A00FB695B6896
S31508002F405B08D218FB695B6819001000FDF7DCF80E
S31508002F5003009BB2FB625EE0FFF714FB03005A0016
S31508002F60FB695B685B08D218FB695B68190010008F
S31508002F70FDF7CAF803009BB2FB624CE08C4B1B685A
S31508002F80102213400ED0FB695B685B08894A9A18C1
S31508002F90FB695B6819001000FDF7B6F803009BB2E1
S31508002FA0FB6238E0FB695B685B08834A9A18FB6931
S31508002FB05B6819001000FDF7A7F803009BB2FB62D7
S31508002FC029E0FFF73BFA03005A00FB695B685B08D8
S31508002FD0D218FB695B6819001000FDF795F8030025
S31508002FE09BB2FB6217E0FB695B685B0880225202B2
S31508002FF09A18FB695B6819001000FDF785F803004D
S315080030009BB2FB6207E0132318229446BC44634430
S3150800301001221A70C046FB6A0F2B20D9FB6A674A41
S3150800302093421CD8FB6A9AB20A2018243B191B182B
S315080030300F218A431A80FB6A5B089BB2072213405A
S3150800304099B23B191B183A19121812880A431A80A2
S31508003050FB691B683A1912181288DA6095E013237F
S3150800306018229446BC44634401221A708DE01B233F
S3150800307018229446BC4463441B78082B6AD89A00E5
S315080030804F4BD3181B689F46FFF766FA0200FB6989
S315080030905B685B08D218FB695B6819001000FDF7CE
S315080030A033F803009BB2FB625CE0FFF76BFA0200A1
S315080030B0FB695B685B08D218FB695B68190010003E
S315080030C0FDF722F803009BB2FB624BE0384B1B6806
S315080030D0102213400ED0FB695B685B08394A9A18C0
S315080030E0FB695B6819001000FDF70EF803009BB238
S315080030F0FB6237E0FB695B685B08334A9A18FB6931
S315080031005B6819001000FCF7FFFF03009BB2FB6227
S3150800311028E0FFF793F90200FB695B685B08D218A1
S31508003120FB695B6819001000FCF7EEFF03009BB211
S31508003130FB6217E0FB695B685B08802212029A183B
S31508003140FB695B6819001000FCF7DEFF03009BB201
S31508003150FB6207E0132318229446BC446344012209
S315080031601A70C046FB6A0F2B08D9FB6A134A9342AA
S3150800317004D8FB691B68FA6ADA6006E0132318228A
S315080031809446BC44634401221A70FB6900221A66FD
S31508003190FB6900225A66132318229446BC446344EA
S315080031A01B781800BD460EB0B0BDC04644350008B1
S315080031B00010024000127A000048E801FFFF0000F4
S315080031C06835000800093D000024F40080B582B087
S315080031D000AF78607B685B6A012213400BD07B687E
S315080031E01B685B684A4A134019007B689A6A7B68C1
S315080031F01B680A435A607B685B6A022213400BD03D
S315080032007B681B685B68434A134019007B68DA6A67
S315080032107B681B680A435A607B685B6A0422134012
S315080032200BD07B681B685B683B4A134019007B68B8
S315080032301A6B7B681B680A435A607B685B6A0822BC
S3150800324013400BD07B681B685B68344A134019002F
S315080032507B685A6B7B681B680A435A607B685B6AA3
S31508003260102213400BD07B681B689B682C4A1340BE
S3150800327019007B689A6B7B681B680A439A607B68AF
S315080032805B6A202213400BD07B681B689B68254A23
S31508003290134019007B68DA6B7B681B680A439A60DF
S315080032A07B685B6A402213401DD07B681B685B689D
S315080032B01D4A134019007B681A6C7B681B680A4311
S315080032C05A607B681A6C80235B039A420BD17B6831
S315080032D01B685B68154A134019007B685A6C7B6843
S315080032E01B680A435A607B685B6A802213400BD0CE
S315080032F07B681B685B680E4A134019007B689A6CEA
S315080033007B681B680A435A60C046BD4602B080BD4A
S31508003310FFFFFDFFFFFFFEFFFFFFFBFFFF7FFFFF36
S31508003320FFEFFFFFFFDFFFFFFFFFEFFFFFFF9FFF3F
S31508003330FFFFF7FF80B586B002AF78607B68002292
S31508003340DA67FDF77BFD0300FB607B681B681B687B
S3150800335008221340082B0DD1FA6880239903786850
S31508003360164B00931300002200F02AF8031E01D022
S3150800337003231FE07B681B681B6804221340042B89
S315080033800DD1FA688023D90378680C4B0093130093
S31508003390002200F015F8031E01D003230AE07B681B
S315080033A020225A677B6820229A677B687022002150
S315080033B0995400231800BD4604B080BDFFFFFF01E5
S315080033C080B584B000AFF860B9603B60FB1D1A7029
S315080033D029E0BB69013326D0FDF730FD02003B68C2
S315080033E0D31ABA699A4202D3BB69002B1BD1FB6870
S315080033F01B681A68FB681B6815490A401A60FB684F
S315080034001B689A68FB681B6801218A439A60FB68F7
S3150800341020225A67FB6820229A67FB6870220021DF
S31508003420995403230FE0FB681B68DB69BA681340ED
S31508003430BA68D31A5A425341DBB21A00FB1D1B78ED
S315080034409A42C6D000231800BD4604B080BDC046C7
S315080034505FFEFFFF70B500260C4D0D4C641BA410D3
S31508003460A64209D1002600F021F80A4D0A4C641B31
S31508003470A410A64205D170BDB300EB589847013693
S31508003480EEE7B300EB5898470136F2E794350008A3
S31508003490943500089435000898350008030012187A
S315080034A0934200D1704719700133F9E7F8B5C04661
S315080034B0F8BC08BC9E467047F8B5C046F8BC08BCC0
S309080034C09E4670475F
S315080034C448414C204F4B000048414C204552524F2E
S315080034D45200000048414C204255535948414C205B
S315080034E454494D454F5554000D0A0000436861720E
S315080034F4676520474F4F44004368617267652042F9
S31508003504414400004661756C7420474F4F440000DF
S315080035144661756C742042414400000000000000B6
S315080035240000000001020304060708090000000061
S3150800353401020304030406080C10182030000000D6
S31508003544342F0008582F00087C2F0008063000087E
S31508003554C22F0008063000080630000806300008A6
S31508003564E62F000888300008AA300008CC30000886
S315080035745431000812310008543100085431000847
S30D08003584543100083431000837
S30D0800358CD4CCFF7F010000000A
S30908003594E900000834
S30908003598C100000858
S3090800359C00002000FD
S70508000D3DA8
